:020000040800F2
:1000000048180020855D00088D0C00088F0C000842
:10001000930C0008970C00089B0C000800000000DF
:100020000000000000000000000000009F0C00081D
:10003000A10C000800000000A30C0008A50C00089B
:100040009F5D00089F5D00089F5D00089F5D0008A0
:100050009F5D00089F5D0008315300089F5D000808
:100060009F5D00085D530008815300089F5D0008F4
:100070009F5D00089F5D00089F5D00089F5D000870
:100080009F5D00089F5D00089F5D00089F5D000860
:100090009F5D00089F5D00089F5D00089F5D000850
:1000A0009F5D00089F5D00089F5D00089F5D000840
:1000B0009F5D00089F5D00089F5D00089F5D000830
:1000C0009F5D00089F5D00089F5D00089F5D000820
:1000D0009F5D00087D5B0008095C0008150F0008A3
:1000E0009F5D00089F5D00089F5D00089F5D000800
:1000F0009F5D00089F5D00089F5D00089F5D0008F0
:100100009F5D00089F5D00089F5D00089F5D0008DF
:100110009F5D00089F5D00089F5D0008890E000834
:100120009F5D00089F5D00089F5D00089F5D0008BF
:10013000DFF80CD008F064FC00480047450A0008CE
:10014000481800201CB5FE480078232836D1FD4809
:100150000078012832D1FC48FC490968405CFC4920
:100160000860FA480068401CF849086008460068C2
:10017000072801D1012008600020F4490090098877
:10018000322202EBC10188B210232D22082104F093
:10019000B6F8EE48006801280DD90020EB49009020
:1001A0000988491E322202EBC10188B210232A229B
:1001B000082104F0A4F80120E6490870E04800781E
:1001C000442828D1E3480078012824D1E048006879
:1001D000401CDF49086008460068092801D9002052
:1001E0000860DB480178D9480068401EDA4A11549B
:1001F0000020D64900900968491E1346595C3031E9
:10020000CAB2D2490988322303EBC10188B2102354
:10021000082104F074F8CA48007800287CD14FF611
:10022000FF7001F002FC0120CB4988710A2005F023
:100230001CFC0722C849C94805F0EBF8C8A01821E2
:100240000B46F022CDE900100021084604F099F990
:10025000642005F00AFCC3A018210B46F022CDE96A
:1002600000100021084604F08CF9642005F0FDFB25
:10027000BDA018210B46F022CDE900100021084650
:1002800004F07FF9642005F0F0FBB8A018210B46BC
:10029000F022CDE900100021084604F072F9642034
:1002A00005F0E3FBB3A018210B46F022CDE90010C6
:1002B0000021084604F065F9642005F0D6FBAFA0E4
:1002C00018210B46F022CDE900100021084604F069
:1002D00058F9642005F0C9FBAAA018210B46F022AA
:1002E000CDE900100021084604F04BF9642005F028
:1002F000BCFBA6A018210B46F022CDE9001000217E
:10030000084604F03EF9642005F0AFFB0722A2493D
:10031000924805F06DF800E026E0A0A00C210B4605
:10032000F022CDE900101921084604F02AF9322004
:1003300005F09BFB99A010210B46F022CDE900109F
:100340001921084604F01DF9322005F08EFB93A018
:1003500018210B46F022CDE900101921084604F0BF
:1003600010F9322005F081FB1CBD7CB5002520244E
:1003700073480078432819D14FF6FF7001F055FB00
:1003800089A010210B46F022CDE9001008210020A1
:1003900004F0F7F8012086490870002085490870AC
:1003A0006C49087001206749087001258048007871
:1003B00001287CD162480078002879DD6048007807
:1003C000092875DC7B480078062870DA5C480178DB
:1003D0005D48784A1278815476480078401C754907
:1003E00008700846007801281BD1002004F10A019A
:1003F000CAB2704900900978322303EBC100102380
:10040000082103F07CFF002004F10D01CAB2694904
:10041000009009783A2303EBC1001023082103F070
:100420006EFF6448007802281BD1002004F10A0105
:10043000CAB2604900900978322303EBC10010234F
:10044000082103F05CFF002004F10D01CAB25949F4
:10045000009009783A2303EBC1001023082103F030
:100460004EFF5448007803281BD1002004F10A01F4
:10047000CAB2504900900978322303EBC10010231F
:10048000082103F03CFF002004F10D01CAB24949E4
:10049000009009783A2303EBC1001023082103F0F0
:1004A0002EFF4448007804281ED1002001E098E087
:1004B00098E004F10A01CAB23E490090097832235B
:1004C00003EBC1001023082103F019FF002004F101
:1004D0000D01CAB23749009009783A2303EBC100F5
:1004E0001023082103F00BFF3248007805281BD1A8
:1004F000002004F10A01CAB22E4900900978322383
:1005000003EBC1001023082103F0F9FE002004F1E1
:100510000D01CAB22749009009783A2303EBC100C4
:100520001023082103F0EBFE22480078062858D15A
:10053000002004F10A01CAB21E49009009783BE08C
:100540002C0000202E0000200A000020380000208F
:100550001C0000202D0000200300002000000708E0
:100560003E0000003E3E00003E3E3E003E3E3E3E1F
:10057000000000003E3E3E3E3E0000003E3E3E3E4D
:100580003E3E00003E3E3E3E3E3E3E003E3E3E3E45
:100590003E3E3E3E00000000110000205375736394
:1005A0006573732100000000696E7075743A000075
:1005B0001000002018000020322303EBC10010239C
:1005C000082103F09CFE002004F10D01CAB2FA4993
:1005D000009009783A2303EBC1001023082103F0AF
:1005E0008EFE2EE2F548007841287DD1F248007851
:1005F000002804DDF0480078401EEF490870EE48FE
:100600000078D0B9002004F10D01CAB2EA49009087
:1006100009783A2303EBC1001023082103F06FFE91
:100620000020E54900900978491C3A2202EBC100FC
:1006300010232246082103F062FEDF4800780128DB
:100640001AD1002004F10D01CAB2DB4900900978EB
:100650003A2303EBC1001023082103F050FE0020D1
:10066000D54900900978491C3A2202EBC1001023B9
:100670002246082103F043FECF48007802281AD111
:10068000002004F10D01CAB2CB49009009783A2349
:1006900003EBC1001023082103F031FE0020C649FE
:1006A00000900978491C3A2202EBC100102322462F
:1006B000082103F024FEC048007803281CD1002044
:1006C00004F10D01CAB2BC49009009783A2303EB4A
:1006D000C1001023082103F012FE0020B64900904B
:1006E0000978491C3A2200E045E002EBC1001023E2
:1006F0002246082103F003FEAF48007804281AD1EF
:10070000002004F10D01CAB2AB49009009783A23E8
:1007100003EBC1001023082103F0F1FD0020A649DE
:1007200000900978491C3A2202EBC10010232246AE
:10073000082103F0E4FDA048007805281AD1002024
:1007400004F10D01CAB29C49009009783A2303EBE9
:10075000C1001023082103F0D2FD0020964900902B
:100760000978491C3A2202EBC100102322460821D5
:1007700003F0C5FD65E19148007842287ED190489C
:1007800080790028FAD18F480078012835D18D482A
:100790004078022831D18B48807803282DD18948B0
:1007A000C078042829D187480079052825D18548B3
:1007B0004079062821D14FF6FF7001F036F982A06A
:1007C00018210B46F022CDE900101421084603F051
:1007D000D8FE002080490870002580A018210B4613
:1007E000F022CDE9001050213C2003F0CAFE04F0B5
:1007F0002DFD01207C49087023E172480078704982
:100800000978884241D16F4840786D4949788842DB
:100810003BD16C4880786A498978884235D16948EB
:10082000C0786749C97888422FD166480079644901
:100830000979884229D163484079614949798842D8
:1008400023D14FF6FF7001F0F0F868A018210B4695
:10085000F022CDE900101E213C2003F092FE002082
:100860005D49087000255DA018210B46F022CDE9F6
:10087000001050213C2003F084FE00E01BE004F057
:10088000E5FC012058490870DBE04FF6FF7001F0ED
:10089000CCF859A018210B46F022CDE90010142104
:1008A000084603F06EFE00204B4908700025012029
:1008B0004D490870C5E04148007842289CD1404825
:1008C0008079012898D13F480078012831D13D48EE
:1008D000407802282DD13B488078032829D1394817
:1008E000C078042825D137480079052821D135481A
:1008F000407906281DD14FF6FF7001F096F832A01E
:1009000018210B46F022CDE900101E213C2003F0F7
:1009100038FE32A018210B46F022CDE900105021FC
:100920003C2003F02EFE04F091FC01202E490870BB
:1009300087E02448007834490978884266D1214804
:10094000407831494978884260D11E4880782E49E4
:10095000897888425AD11B48C0782B49C978884287
:1009600054D1184800792849097988424ED1154850
:10097000407925494979884248D14FF6FF7001F006
:1009800054F81AA018210B46F022CDE900101E21C0
:100990003C2003F0F6FD11A018210B46F022CDE912
:1009A000001050213C2003F0ECFD04F04FFC01202E
:1009B0000D49087045E029E0180000202C000020B7
:1009C000110000200A00002041646D696E537563B8
:1009D00063657373000000002E0000204F70656E89
:1009E0003E3E3E3E0000000002000020557365724E
:1009F000537563636573730070617373776F7264AB
:100A0000314552524F520000030000204FF6FF7054
:100A100001F00BF86FA018210B46F022CDE9001071
:100A20001E21142003F0ADFD6E4818210B46F02264
:100A3000CDE900105021142003F0A3FD01206A49E4
:100A400008707CBD0EB500BF04F05EFD04F09AFB9B
:100A500000F08AFB04F0CCFF0121082005F02EFDF8
:100A60004020ADF8080010208DF80B0003208DF811
:100A70000A0002A95D4805F065FA4FF4A06005F090
:100A800093F94FF4E13005F02CF84FF4E13005F024
:100A9000EAF84FF4E13000F06CFA00F0DBFF0020E0
:100AA0005349088004F04CFA04F0EAFB072251494C
:100AB000514804F09DFC8CE04B480078012806D199
:100AC0000020494908704FF6FF7000F0AEFF4BA0C0
:100AD00018210B46D222CDE900100A21084603F066
:100AE00050FD4AA018210B46D222CDE90010282142
:100AF0000A2003F046FD48A018210B46D222CDE97A
:100B0000001050210A2003F03CFD46A018210B469E
:100B1000C822CDE9001078210A2003F032FD45A05B
:100B200018210B46D222CDE90010A0210A2003F0A3
:100B300028FD48E04348007800283CD04FF6FF707D
:100B400000F073FF40A010210B46F022CDE9001009
:100B50000021084603F015FD40A018210B46F022A5
:100B6000CDE900101021142003F00BFD3EA0102150
:100B70000B46F022CDE900102E21192003F001FDD3
:100B80000020304908704FF47A7004F06EFF07229D
:100B90003749194804F03DFC07221649164804F06D
:100BA00027FC34A010210B46F022CDE90010422191
:100BB000192003F0E6FC04F027FD32490870FFF726
:100BC000D4FBFFF7BFFA304800780028B2D104F018
:100BD0004CF871E770617373776F726432455252EB
:100BE0004F5200000A00002002000020000C0140CB
:100BF0005400002011000020000007084351555008
:100C00005420303830353230303400003230323019
:100C1000323132363130000032303230323132351A
:100C20003935000054696D653A323032332F303631
:100C30002F313000444F4F522053495455415449AD
:100C40004F4E3A0001000020202D2D2D2D2D2D2D51
:100C50002D2D2D2D2D2D2D2D2D2D200057656C6525
:100C6000636F6D65000000004D5920484F535400DC
:100C700003000020666C61736820726561646564BE
:100C8000000000002C00002000000020704700BF82
:100C9000FEE700BFFEE700BFFEE700BFFEE77047CC
:100CA00070477047704700000CB50020019000901D
:100CB0006C48006840F480306A49086000BF6948A9
:100CC000006800F4003000900198401C01900098EA
:100CD00018B90198B0F5A06FF1D16248006800F42E
:100CE000003010B10120009001E000200090009839
:100CF000012843D15C48006840F010005A49086060
:100D00000846006820F0030008600846006840F0CC
:100D100002000860534840685249486008464068ED
:100D200048600846406840F4806048600846406873
:100D300020F47C1048600846406840F4E8104860A1
:100D40000846006840F08070086000BF45480068B1
:100D500000F000700028F9D04248406820F00300FD
:100D6000404948600846406840F00200486000BFC3
:100D70003C48406800F00C000828F9D10CBD10B5C3
:100D8000FFF792FF10BD10B53648006840F0010033
:100D90003449086008464068344908403149486091
:100DA00008460068324908402E4908600846006835
:100DB00020F4802008600846406820F4FE00486067
:100DC0004FF41F008860FFF7DAFF4FF000602949F9
:100DD000086010BD10B5002100200022214B5B6887
:100DE00003F00C0121B1042906D0082928D107E01D
:100DF000214B224C236027E01F4B204C236023E033
:100E0000184B5B6803F47010164B5B6803F4803278
:100E1000022303EB904022B9194B4343174C236044
:100E20000DE0104B5B6803F4003323B1144B4343D4
:100E3000124C236003E0104B4343104C236003E04B
:100E40000D4B0E4C236000BF00BF064B5B68C3F325
:100E500003130C4CE15C094B1B68CB40074C23602F
:100E600010BD000000100240002002400000FFF80A
:100E7000FFFFF6FE08ED00E000127A003C000020C3
:100E800000093D004000002010B501211F4806F078
:100E900076FC68B11E48008840F400401C49088078
:100EA00001211A4806F07CFC0021184806F09EF942
:100EB00010BD7FB505460C460121202005F00BFB37
:100EC000ADF80450ADF800400020ADF80600ADF8D4
:100ED000020069460D4805F02DFE012211460B481F
:100EE00006F09FF90121094806F080F937208DF8B6
:100EF0000C0000208DF80D0002208DF80E0001205E
:100F00008DF80F0003A804F054FF7FBD00140040CB
:100F10005000002010B540F22551574805F0F2FC72
:100F2000F8B1554805F06EFCC4B25448008800F48E
:100F30000040B0B951480088B0F5167F12DA0021A0
:100F40004F4806F0E7FB4D48008818B901214C488E
:100F500006F04CF949490888411C484A1180494922
:100F60000C5405E04548008840F40040434908809F
:100F700010BD10B586B004460121082005F09EFA88
:100F80000121880405F0A7FA3B4805F0FBFA4FF46D
:100F90008060ADF8100003208DF8120018208DF845
:100FA000130004A9384804F0CDFF4FF40060ADF8F9
:100FB000100004208DF8130004A9334804F0C2FF88
:100FC00000940020ADF80400ADF80600ADF808006C
:100FD000ADF80C000C20ADF80A006946264805F073
:100FE00014FB0121244805F09CFB012240F225510D
:100FF000214805F0A2FB27208DF8140003208DF86E
:1010000015008DF8160001208DF8170005A804F0D2
:10101000D0FE41F61F4140F2E730FFF74AFF0020C3
:10102000164908800021164806F0E0F806B010BD09
:101030000FB438B505A800901448009A049907F039
:1010400023FD00200090114807F032FA85B20024F9
:101050000DE000BF4021084805F03EFC0028F9D013
:101060000A48015D044805F0C9FB601C84B2AC422B
:10107000EFDB38BC5DF814FB004800405000002056
:1010800000140040D0000020000C01402803002084
:1010900008B50121442005F011FA1820ADF8000030
:1010A00048208DF8030069462C4804F04BFF0120CE
:1010B000ADF8000028208DF803006946284804F0A8
:1010C00041FF08BD10B5044614B101202549087040
:1010D0002448007858B31021204804F0C6FF50B1CE
:1010E00008211E4804F0C1FF28B101211C4804F06A
:1010F000BCFF01281BD10A2004F0B7FC00201949CD
:1011000008701021154804F0B0FF08B9012010BD87
:101110000821124804F0A9FF08B90220F7E70121CD
:101120000F4804F0A2FF012815D10320EFE710219A
:101130000A4804F09AFF01280DD10821074804F05D
:1011400094FF012807D10121054804F08EFF10B952
:101150000120044908700020D9E700000018014070
:10116000000801405200002008B50121482005F088
:10117000A5F92020ADF8000010208DF80300032011
:101180008DF802006946094804F0DCFE202107487A
:1011900004F085FF2020ADF800006946044804F003
:1011A000D1FE2021024804F07AFF08BD000C014066
:1011B00000180140FE4908807047FD49891C0880DD
:1011C000704708B5FA48801C00880090BDF8000000
:1011D00008BDF74A1080921C1180704710B5044674
:1011E0002046FFF7E7FF052004F01BFCFFF7E9FFAF
:1011F00010BDF0480089EE4908807047EC49891C11
:101200000880704730B5014601F01F04C1F3451353
:10121000CA0AE50205EB43151544A8B230BD00BF6C
:10122000011EA0F10102D0B2FAD1704700B502460A
:101230000B46E048808841F66311884247D1DD487B
:101240008079A8B9DB480088401E801A82B2D9494B
:101250004889FFF7AFFF0020FFF7AFFF0020FFF73F
:10126000ACFF1012FFF7A9FFD0B2FFF7A6FF16E000
:10127000D0494889FFF79EFF1012FFF79EFFD0B2BA
:10128000FFF79BFFCB490988491EC1F30F20FFF7E9
:1012900094FFC8490978491EC8B2FFF78EFFC549B7
:1012A0008889FFF787FF1812FFF787FFD8B2FFF78B
:1012B00084FFC0494988491EC1F30F20FFF77DFF15
:1012C000BC498978491EC8B2FFF777FF3AE0B948B0
:1012D000808845F21051884220D1B6494889FFF7ED
:1012E00069FF1012FFF769FFB2494989491C88B2AA
:1012F000FFF760FFD0B2FFF760FFAE498889FFF7C4
:1013000059FF1812FFF759FFAA498989491C88B269
:10131000FFF750FFD8B2FFF750FF13E0A549488907
:10132000FFF748FF1012FFF748FFD0B2FFF745FF65
:10133000A0498889FFF73EFF1812FFF73EFFD8B299
:10134000FFF73BFF00BD2DE9F04105460E469948E9
:101350000088A84203DD97484088B04202DC0020A4
:10136000BDE8F08131462846FFF760FF914880884C
:1013700045F21051884204D14FF43850FFF71AFF5C
:1013800002E02E20FFF716FFFFF71BFF04468948F7
:10139000808841F66311884201D12046E0E7FFF7DB
:1013A00010FF0446FFF70DFF8046E7B24FF6FF70CF
:1013B00000EA0727E012C002B91240EA411040EAF1
:1013C000E820CDE700B57B48808845F2105188427F
:1013D00004D14FF42450FFF7EDFE02E02920FFF77F
:1013E000E9FE00BD00B57348808845F2105188427F
:1013F00004D14FF42050FFF7DDFE02E02820FFF774
:10140000D9FE00BD70B504460023002669488079E6
:10141000012805D16748808841F66311884208D1C8
:1014200064488079F0B96348808841F66311884246
:1014300018D1082C15D2DFE804F00406080A0C0EB7
:10144000101206240DE007240BE0042409E0052413
:1014500007E0012405E0002403E0032401E0022466
:1014600000BF00BF082C1CD2DFE804F00406090C02
:101470000F12151800BF14E043F0800311E043F091
:1014800040030EE043F0C0030BE043F0200308E00C
:1014900043F0600305E043F0A00302E043F0E00303
:1014A00000BF00BF4348808845F21051884202D1F6
:1014B0004FF4585600E036263E48808849F24131C4
:1014C000884205D03B48808847F28971884201D123
:1014D00043F0080319463046FFF77BFE3548808805
:1014E00041F6631188421DD003F0200068B13148F5
:1014F000008830494988884214DA2E480588408897
:101500002C490880084645800CE02A480088294973
:101510004988884206DD2748058840882549088093
:10152000084645802348808845F21051884257D1AB
:1015300020494889FFF73EFE0020FFF73EFE1D4987
:101540004989491C88B2FFF735FE0020FFF735FEB8
:1015500018494989891C88B2FFF72CFE154909886A
:10156000491EC1F30F20FFF728FE12494989C91C03
:1015700088B2FFF71FFE0F490978491EC8B2FFF76E
:101580001CFE0C498889FFF715FE0020FFF715FEA9
:1015900008498989491C88B2FFF70CFE0020FFF733
:1015A0000CFE04498989891C88B2FFF703FE03E019
:1015B000FE07006C80050020FE494988491EC1F3E2
:1015C0000F20FFF7FAFDFB498989C91C88B2FFF794
:1015D000F1FDF8498978491EC8B2FFF7EEFD2DE00C
:1015E000F4494889FFF7E6FD0020FFF7E6FD0020FB
:1015F000FFF7E3FDEF490988491EC1F30F20FFF70C
:10160000DCFDEC490978491EC8B2FFF7D6FDE9496F
:101610008889FFF7CFFD0020FFF7CFFD0020FFF7FF
:10162000CCFDE4494988491EC1F30F20FFF7C5FDF1
:10163000E0498978491EC8B2FFF7BFFD70BD30B5DB
:1016400004460D4629462046FFF7F0FDFFF7D1FD81
:10165000D9480088D949088030BD10B503460C46EA
:10166000D448808845F21051884220D1D149488918
:10167000FFF7A0FD1812FFF7A0FDCE494989491CCC
:1016800088B2FFF797FDD8B2FFF797FDC94988895F
:10169000FFF790FD2012FFF790FDC6498989491C8C
:1016A00088B2FFF787FDE0B2FFF787FD42E0C1484F
:1016B000808841F66311884228D1BE48807920B9DC
:1016C000BC480088401EC01A83B2BA494889FFF757
:1016D00071FD1812FFF771FDD8B2FFF76EFD1812F9
:1016E000FFF76BFDD8B2FFF768FDB2498889FFF7B5
:1016F00061FD2012FFF761FDE0B2FFF75EFD2012F1
:10170000FFF75BFDE0B2FFF758FD13E0A9494889F8
:10171000FFF750FD1812FFF750FDD8B2FFF74DFD4F
:10172000A4498889FFF746FD2012FFF746FDE0B285
:10173000FFF743FD9F480089A049891E0880881C47
:10174000028010BD2DE9F0470446BE20FFF732FDB0
:101750000520FFF732FD204606F031FF07464FF027
:101760006632974B06F0B9FE054606F035FF1FFAC4
:1017700080F94846FFF721FD0120FFF71EFDFF20FD
:10178000FFF71BFD0020FFF718FD0020FFF715FDF8
:10179000BDE8F08710B5044686488471002C45D119
:1017A000F020844908804FF4A07048800846808863
:1017B00045F21051884210D14FF430507D490881D4
:1017C0004FF4285048814FF42C5088814FF4F0702A
:1017D00008804FF4487048801AE07648808841F6C7
:1017E000631188420DD12C20724908812B20488139
:1017F0002A2088814FF4F07008804FF448704880A8
:1018000006E02C206B4908812A2048812B20888102
:101810006848808845F2103188424CD14FF4A0705E
:10182000644908804FF4F070488044E04FF4A070A1
:1018300060490880F02048800846808845F21051B1
:10184000884210D14FF430505A4908814FF4285043
:1018500048814FF42C5088814FF4487008804FF431
:10186000F07048801AE05348808841F6631188423E
:101870000DD12C204F4908812A2048812B208881B6
:101880004FF4487008804FF4F070488006E02C2038
:10189000484908812A2048812B2088814548808832
:1018A00045F21031884206D14FF4F070414908806A
:1018B0004FF4A07048800020FFF7A4FD10BDF0B5E4
:1018C00004460D46A018401E86B2E818401E87B296
:1018D0003848808841F66311884231D13548807993
:1018E00001282DD033480088801A001B84B2E818E4
:1018F000401E83B22F494889FFF75CFC2012FFF796
:101900005CFCE0B2FFF759FCA118491EC1F30F209F
:10191000FFF753FCA118491EC8B2FFF74EFC25493A
:101920008889FFF747FC2812FFF747FCE8B2FFF76A
:1019300044FC1812FFF741FCD8B2FFF73EFC73E0FD
:101940001C48808845F2105188424DD11949488978
:10195000FFF730FC2012FFF730FC16494989491C7B
:1019600088B2FFF727FCE0B2FFF727FC114949894D
:10197000891C88B2FFF71EFC3012FFF71EFC0D49D0
:101980004989C91C88B2FFF715FCF0B2FFF715FCB6
:1019900008498889FFF70EFC2812FFF70EFC05495D
:1019A0008989491C88B2FFF705FCE8B2FFF705FCFE
:1019B000004907E080050020540000200008006C6A
:1019C000666604408989891C88B2FFF7F3FB3812E8
:1019D000FFF7F3FBFE498989C91C88B2FFF7EAFBD0
:1019E000F8B2FFF7EAFB1FE0F9494889FFF7E2FB8D
:1019F0002012FFF7E2FBE0B2FFF7DFFB3012FFF748
:101A0000DCFBF0B2FFF7D9FBF1498889FFF7D2FB85
:101A10002812FFF7D2FBE8B2FFF7CFFB3812FFF72F
:101A2000CCFBF8B2FFF7C9FBF0BD70B50446002649
:101A3000E74805884088454300210846FFF7F6FB44
:101A4000FFF7D7FB00BF02E0E2480480761CAE42FD
:101A5000FAD370BD00B59FB00121080204F021FD4A
:101A600001214FF4B47004F029FD0120ADF8780095
:101A700010208DF87B0003208DF87A001EA9D6482F
:101A800004F060FA4CF23370ADF8780018208DF84D
:101A90007B0003208DF87A001EA9D04804F052FA8A
:101AA0004FF68070ADF8780018208DF87B00032089
:101AB0008DF87A001EA9CA4804F044FA41F20100E8
:101AC000ADF8780018208DF87B0003208DF87A009F
:101AD0001EA9C44804F036FA01200890002009909D
:101AE0000F200A9000200B900C900D900E9001900A
:101AF0000290032003900020049005900690079028
:101B000006200F90002010901190102012900020BD
:101B1000139015901490169017904FF480501890D1
:101B2000002019904FF480401A9000201B9008A8C4
:101B30001C9001A81D900FA805F082FE012106202F
:101B400005F0E6FF322003F090FFD320FFF732FBD1
:101B5000FFF737FB9E498880FFF733FB9C4988805D
:101B6000FFF72FFB9A498880084680884FF6FF715F
:101B700001EA002096498880FFF723FB9449898871
:101B80000843934988800846808849F24131884259
:101B90007DD00420FFF70EFBFFF713FB8C498880F4
:101BA000FFF70FFB8A498880FFF70BFB8849888085
:101BB000084680884FF6FF7101EA0020844988803A
:101BC000FFF7FFFA824989880843814988800846DF
:101BD000808848F25251884203D147F289707C498B
:101BE00088807B48808847F289718842D0D0D42091
:101BF000FFF7E0FAFFF7E5FA75498880FFF7E1FAA9
:101C000073498880FFF7DDFA71498880084680882B
:101C10004FF6FF7101EA00206D498880FFF7D1FA85
:101C20006B49898808436A4988800846808845F25C
:101C30001031884262D055214FF47040FFF7C9FA45
:101C4000AA214FF20100FFF7C4FA52214FF202001D
:101C5000FFF7BFFA08214FF20300FFF7BAFA01219C
:101C60004FF20400FFF7B5FA4FF44540FFF7A2FA30
:101C7000FFF7A7FA56498880084680884FF6FF711B
:101C800001EA0020524988804CF2015000E035E022
:101C9000FFF790FAFFF795FA4D49898808434C49B8
:101CA0008880052003F0E1FE4948808845F2105104
:101CB000884223D0A120FFF77DFAFFF782FA44493A
:101CC0008880FFF77EFA42498880084680884FF670
:101CD000FF7101EA00203E498880FFF772FA3C4913
:101CE000898808433A4988800846808845F26171AE
:101CF000884203D141F66310354988803448818891
:101D000039A006F0B1FE3248808849F2413188425C
:101D100072D1CF20FFF74EFA0020FFF74EFAC12014
:101D2000FFF74BFA3020FFF748FAED20FFF742FAB1
:101D30006420FFF742FA0320FFF73FFA1220FFF773
:101D40003CFA8120FFF739FAE820FFF733FA8520C3
:101D5000FFF733FA1020FFF730FA7A20FFF72DFA59
:101D6000CB20FFF727FA3920FFF727FA2C20FFF7BF
:101D700024FA0020FFF721FA3420FFF71EFA022090
:101D8000FFF71BFAF720FFF715FA2020FFF715FAE7
:101D9000EA20FFF70FFA0020FFF70FFA0020FFF705
:101DA0000CFAC020FFF706FA1B20FFF706FAC12045
:101DB000FFF700FA0120FFF700FAC520FFF7FAF954
:101DC0003020FFF7FAF93020FFF7F7F9C72014E0C9
:101DD000800500200008006C000C01400014014048
:101DE0000018014000200140204C43442049443A5F
:101DF00025780D0A00000000B7E0FFF7DBF9B720F7
:101E0000FFF7DBF93620FFF7D5F94820FFF7D5F9C2
:101E10003A20FFF7CFF95520FFF7CFF9B120FFF7B0
:101E2000C9F90020FFF7C9F91A20FFF7C6F9B62053
:101E3000FFF7C0F90A20FFF7C0F9A220FFF7BDF9AC
:101E4000F220FFF7B7F90020FFF7B7F92620FFF7D8
:101E5000B1F90120FFF7B1F9E020FFF7ABF90F204E
:101E6000FFF7ABF92A20FFF7A8F92820FFF7A5F91B
:101E70000820FFF7A2F90E20FFF79FF90820FFF7CF
:101E80009CF95420FFF799F9A920FFF796F9432010
:101E9000FFF793F90A20FFF790F90F20FFF78DF96C
:101EA0000020FFF78AF90020FFF787F90020FFF7ED
:101EB00084F90020FFF781F9E120FFF77BF900208A
:101EC000FFF77BF91520FFF778F91720FFF775F971
:101ED0000720FFF772F91120FFF76FF90620FFF7CF
:101EE0006CF92B20FFF769F95620FFF766F93C20C3
:101EF000FFF763F90520FFF760F91020FFF75DF9A0
:101F00000F20FFF75AF93F20FFF757F93F20FFF75F
:101F100054F90F20FFF751F92B20FFF74BF9002060
:101F2000FFF74BF90020FFF748F90120FFF745F9CB
:101F30003F20FFF742F92A20FFF73CF90020FFF786
:101F40003CF90020FFF739F90020FFF736F9EF20C0
:101F5000FFF733F91120FFF72DF9782003F085FD05
:101F60002920FFF727F902F0A6B8FE48808847F23B
:101F7000897188427ED11120FFF71CF9782003F087
:101F800074FD3620FFF716F90020FFF716F93A2006
:101F9000FFF710F90520FFF710F9B220FFF70AF953
:101FA0000C20FFF70AF90C20FFF707F90020FFF7D4
:101FB00004F93320FFF701F93320FFF7FEF8B720CB
:101FC000FFF7F8F83520FFF7F8F8BB20FFF7F2F835
:101FD0003220FFF7F2F8C020FFF7ECF80C20FFF7F3
:101FE000ECF8C220FFF7E6F80120FFF7E6F8C3207F
:101FF000FFF7E0F81020FFF7E0F8C420FFF7DAF869
:102000002020FFF7DAF8C620FFF7D4F80F20FFF7FB
:10201000D4F8D020FFF7CEF8A420FFF7CEF8A12007
:10202000FFF7CBF8E020FFF7C5F8D020FFF7C5F8A1
:102030000020FFF7C2F80220FFF7BFF80720FFF7E4
:10204000BCF80A20FFF7B9F82820FFF7B6F83220CD
:10205000FFF7B3F84420FFF7B0F84220FFF7ADF8E0
:102060000620FFF7AAF80E20FFF7A7F81220FFF7C7
:10207000A4F800E054E01420FFF79FF81720FFF7C2
:102080009CF8E120FFF796F8D020FFF796F80020A3
:10209000FFF793F80220FFF790F80720FFF78DF87D
:1020A0000A20FFF78AF82820FFF787F83120FFF78A
:1020B00084F85420FFF781F84720FFF77EF80E20C0
:1020C000FFF77BF81C20FFF778F81720FFF775F86B
:1020D0001B20FFF772F81E20FFF76FF82A20FFF78A
:1020E00069F80020FFF769F80020FFF766F8002084
:1020F000FFF763F8EF20FFF760F82B20FFF75AF89F
:102100000020FFF75AF80020FFF757F80120FFF7EB
:1021100054F83F20FFF751F82920FFF74BF822E74A
:102120009048808845F21031884240F07C87ED204D
:10213000FFF740F80120FFF740F8FE20FFF73DF8D9
:10214000EE20FFF737F8DE20FFF737F82120FFF702
:1021500034F8F120FFF72EF80120FFF72EF8DF20EA
:10216000FFF728F81020FFF728F8C420FFF722F81F
:102170008F20FFF722F8C620FFF71CF80020FFF79A
:102180001CF8E220FFF719F8E220FFF716F8E2202A
:10219000FFF713F8BF20FFF70DF8AA20FFF70DF89F
:1021A000B020FFF707F80D20FFF707F80020FFF732
:1021B00004F80D20FFF701F80020FEF7FEFF1120C4
:1021C000FEF7FBFF0020FEF7F8FF1920FEF7F5FFF2
:1021D0000020FEF7F2FF2120FEF7EFFF0020FEF7C0
:1021E000ECFF2D20FEF7E9FF0020FEF7E6FF3D2083
:1021F000FEF7E3FF0020FEF7E0FF5D20FEF7DDFFC6
:102200000020FEF7DAFF5D20FEF7D7FF0020FEF783
:10221000D4FFB120FEF7CEFF8020FEF7CEFF0020D6
:10222000FEF7CBFF8B20FEF7C8FF0020FEF7C5FFAF
:102230009620FEF7C2FF0020FEF7BFFFB220FEF798
:10224000B9FF0020FEF7B9FF0020FEF7B6FF02201D
:10225000FEF7B3FF0020FEF7B0FF0320FEF7ADFF4F
:102260000020FEF7AAFFB320FEF7A4FF0020FEF730
:10227000A4FF0020FEF7A1FF0020FEF79EFF002034
:10228000FEF79BFF0020FEF798FF0020FEF795FF6A
:102290000020FEF792FF0020FEF78FFF0020FEF7E0
:1022A0008CFF0020FEF789FF0020FEF786FF00204C
:1022B000FEF783FF0020FEF780FF0020FEF77DFF82
:1022C0000020FEF77AFF0020FEF777FF0020FEF7E0
:1022D00074FF0020FEF771FF0020FEF76EFF002064
:1022E000FEF76BFF0020FEF768FF0020FEF765FF9A
:1022F0000020FEF762FF0020FEF75FFFB420FEF72C
:1023000059FF8B20FEF759FF0020FEF756FF96205D
:10231000FEF753FF0020FEF750FFA120FEF74DFF10
:102320000020FEF74AFFB520FEF744FF0220FEF72B
:1023300044FF0020FEF741FF0320FEF73EFF002090
:10234000FEF73BFF0420FEF738FF0020FEF735FFC5
:10235000B620FEF72FFF0020FEF72FFF0020FEF72C
:102360002CFF01E080050020B720FEF723FF0020AE
:10237000FEF723FF0020FEF720FF3F20FEF71DFFA2
:102380000020FEF71AFF5E20FEF717FF0020FEF781
:1023900014FF6420FEF711FF0020FEF70EFF8C20D3
:1023A000FEF70BFF0020FEF708FFAC20FEF705FF4D
:1023B0000020FEF702FFDC20FEF7FFFE0020FEF704
:1023C000FCFE7020FEF7F9FE0020FEF7F6FE9020DE
:1023D000FEF7F3FE0020FEF7F0FEEB20FEF7EDFE29
:1023E0000020FEF7EAFEDC20FEF7E7FE0020FEF705
:1023F000E4FEB820FEF7DEFE0020FEF7DEFE002041
:10240000FEF7DBFE0020FEF7D8FE0020FEF7D5FE2B
:102410000020FEF7D2FE0020FEF7CFFE0020FEF7E0
:10242000CCFE0020FEF7C9FEBA20FEF7C3FE242032
:10243000FEF7C3FE0020FEF7C0FE0020FEF7BDFE43
:102440000020FEF7BAFEC120FEF7B4FE2020FEF702
:10245000B4FE0020FEF7B1FE5420FEF7AEFE0020D1
:10246000FEF7ABFEFF20FEF7A8FE0020FEF7A5FE5C
:10247000C220FEF79FFE0A20FEF79FFE0020FEF717
:102480009CFE0420FEF799FE0020FEF796FEC32076
:10249000FEF790FE3C20FEF790FE0020FEF78DFE3A
:1024A0003A20FEF78AFE0020FEF787FE3920FEF76D
:1024B00084FE0020FEF781FE3720FEF77EFE00201E
:1024C000FEF77BFE3C20FEF778FE0020FEF775FE4F
:1024D0003620FEF772FE0020FEF76FFE3220FEF778
:1024E0006CFE0020FEF769FE2F20FEF766FE00203E
:1024F000FEF763FE2C20FEF760FE0020FEF75DFE77
:102500002920FEF75AFE0020FEF757FE2620FEF790
:1025100054FE0020FEF751FE2420FEF74EFE002060
:10252000FEF74BFE2420FEF748FE0020FEF745FE96
:102530002320FEF742FE0020FEF73FFE3C20FEF780
:102540003CFE0020FEF739FE3620FEF736FE002066
:10255000FEF733FE3220FEF730FE0020FEF72DFEA0
:102560002F20FEF72AFE0020FEF727FE2C20FEF784
:1025700024FE0020FEF721FE2920FEF71EFE00208B
:10258000FEF71BFE2620FEF718FE0020FEF715FEC4
:102590002420FEF712FE0020FEF70FFE2420FEF797
:1025A0000CFE0020FEF709FE2320FEF706FE0020A9
:1025B000FEF703FEC420FEF7FDFD6220FEF7FDFDE1
:1025C0000020FEF7FAFD0520FEF7F7FD0020FEF7DC
:1025D000F4FD8420FEF7F1FD0020FEF7EEFDF02073
:1025E000FEF7EBFD0020FEF7E8FD1820FEF7E5FD05
:1025F0000020FEF7E2FDA420FEF7DFFD0020FEF73D
:10260000DCFD1820FEF7D9FD0020FEF7D6FD502096
:10261000FEF7D3FD0020FEF7D0FD0C20FEF7CDFD28
:102620000020FEF7CAFD1720FEF7C7FD0020FEF7C9
:10263000C4FD9520FEF7C1FD0020FEF7BEFDF3208E
:10264000FEF7BBFD0020FEF7B8FDE620FEF7B5FD66
:102650000020FEF7B2FDC520FEF7ACFD3220FEF7EC
:10266000ACFD0020FEF7A9FD4420FEF7A6FD0020EA
:10267000FEF7A3FD6520FEF7A0FD0020FEF79DFDFF
:102680007620FEF79AFD0020FEF797FD8820FEF7E2
:1026900094FD0020FEF791FDC620FEF78BFD202063
:1026A000FEF78BFD0020FEF788FD1720FEF785FD65
:1026B0000020FEF782FD0120FEF77FFD0020FEF7DF
:1026C0007CFDC720FEF776FD0020FEF776FD00209A
:1026D000FEF773FD0020FEF770FD0020FEF76DFD94
:1026E000C820FEF767FD0020FEF767FD0020FEF71B
:1026F00064FD0020FEF761FD0020FEF75EFDC920AD
:10270000FEF758FD0020FEF758FD0020FEF755FDAE
:102710000020FEF752FD0020FEF74FFD0020FEF7DF
:102720004CFD0020FEF749FD0020FEF746FD00208D
:10273000FEF743FD0020FEF740FD0020FEF73DFDC3
:102740000020FEF73AFD0020FEF737FD0020FEF7DF
:1027500034FD0020FEF731FD0020FEF72EFD0020A5
:10276000FEF72BFDE020FEF725FD1620FEF725FDE8
:102770000020FEF722FD1C20FEF71FFD0020FEF7C3
:102780001CFD2120FEF719FD0020FEF716FD362066
:10279000FEF713FD0020FEF710FD4620FEF70DFDAD
:1027A0000020FEF70AFD5220FEF707FD0020FEF78D
:1027B00004FD6420FEF701FD0020FEF7FEFC7A20F8
:1027C000FEF7FBFC0020FEF7F8FC8B20FEF7F5FC83
:1027D0000020FEF7F2FC9920FEF7EFFC0020FEF748
:1027E000ECFCA820FEF7E9FC0020FEF7E6FCB9208F
:1027F000FEF7E3FC0020FEF7E0FCC420FEF7DDFC62
:102800000020FEF7DAFCCA20FEF7D7FC0020FEF716
:10281000D4FCD220FEF7D1FC0020FEF7CEFCD9205C
:10282000FEF7CBFC0020FEF7C8FCE020FEF7C5FC5D
:102830000020FEF7C2FCF320FEF7BFFC0020FEF7ED
:10284000BCFCE120FEF7B6FC1620FEF7B6FC00202B
:10285000FEF7B3FC1C20FEF7B0FC0020FEF7ADFC39
:102860002220FEF7AAFC0020FEF7A7FC3620FEF788
:10287000A4FC0020FEF7A1FC4520FEF79EFC0020F2
:10288000FEF79BFC5220FEF798FC0020FEF795FC1B
:102890006420FEF792FC0020FEF78FFC7A20FEF702
:1028A0008CFC0020FEF789FC8B20FEF786FC0020C4
:1028B000FEF783FC9920FEF780FC0020FEF77DFCEC
:1028C000A820FEF77AFC0020FEF777FCB920FEF77F
:1028D00074FC0020FEF771FCC420FEF76EFC0020A3
:1028E000FEF76BFCCA20FEF768FC0020FEF765FCD3
:1028F000D220FEF762FC0020FEF75FFCD820FEF736
:102900005CFC0020FEF759FCE020FEF756FC00209E
:10291000FEF753FCF320FEF750FC0020FEF74DFCC1
:10292000E220FEF747FC0520FEF747FC0020FEF7FB
:1029300044FC0B20FEF741FC0020FEF73EFC1B2070
:10294000FEF73BFC0020FEF738FC3420FEF735FC98
:102950000020FEF732FC4420FEF72FFC0020FEF79B
:102960002CFC4F20FEF729FC0020FEF726FC6120FE
:10297000FEF723FC0020FEF720FC7920FEF71DFC6B
:102980000020FEF71AFC8820FEF717FC0020FEF757
:1029900014FC9720FEF711FC0020FEF70EFCA62089
:1029A000FEF70BFC0020FEF708FCB720FEF705FC45
:1029B0000020FEF702FCC220FEF7FFFB0020FEF71E
:1029C000FCFBC720FEF7F9FB0020FEF7F6FBD12049
:1029D000FEF7F3FB0020FEF7F0FBD620FEF7EDFB41
:1029E0000020FEF7EAFBDD20FEF7E7FB0020FEF704
:1029F000E4FBF320FEF7E1FB0020FEF7DEFBE32023
:102A0000FEF7D8FB0520FEF7D8FB0020FEF7D5FB2C
:102A10000A20FEF7D2FB0020FEF7CFFB1C20FEF7BA
:102A2000CCFB0020FEF7C9FB3320FEF7C6FB0020DD
:102A3000FEF7C3FB4420FEF7C0FB0020FEF7BDFB02
:102A40005020FEF7BAFB0020FEF7B7FB6220FEF72E
:102A5000B4FB0020FEF7B1FB7820FEF7AEFB0020B0
:102A6000FEF7ABFB8820FEF7A8FB0020FEF7A5FBD6
:102A70009720FEF7A2FB0020FEF79FFBA620FEF7A3
:102A80009CFB0020FEF799FBB720FEF796FB002089
:102A9000FEF793FBC220FEF790FB0020FEF78DFBB4
:102AA000C720FEF78AFB0020FEF787FBD120FEF748
:102AB00084FB0020FEF781FBD520FEF77EFB002083
:102AC000FEF77BFBDD20FEF778FB0020FEF775FBB1
:102AD000F320FEF772FB0020FEF76FFBE420FEF709
:102AE00069FB0120FEF769FB0020FEF766FB012071
:102AF000FEF763FB0020FEF760FB0220FEF75DFBA4
:102B00000020FEF75AFB2A20FEF757FB0020FEF7B5
:102B100054FB3C20FEF751FB0020FEF74EFB4B2000
:102B2000FEF74BFB0020FEF748FB5D20FEF745FB60
:102B30000020FEF742FB7420FEF73FFB0020FEF76B
:102B40003CFB8420FEF739FB0020FEF736FB932088
:102B5000FEF733FB0020FEF730FBA220FEF72DFB33
:102B60000020FEF72AFBB320FEF727FB0020FEF72C
:102B700024FBBE20FEF721FB0020FEF71EFBC42035
:102B8000FEF71BFB0020FEF718FBCD20FEF715FB20
:102B90000020FEF712FBD320FEF70FFB0020FEF70C
:102BA0000CFBDD20FEF709FB0020FEF706FBF320FF
:102BB000FEF703FB0020FEF700FBE520FEF7FAFA24
:102BC0000020FEF7FAFA0020FEF7F7FA0020FEF7E1
:102BD000F4FA0020FEF7F1FA0220FEF7EEFA0020E8
:102BE000FEF7EBFA2920FEF7E8FA0020FEF7E5FAF7
:102BF0003C20FEF7E2FA0020FEF7DFFA4B20FEF75A
:102C0000DCFA0020FEF7D9FA5D20FEF7D6FA0020A4
:102C1000FEF7D3FA7420FEF7D0FA0020FEF7CDFAC3
:102C20008420FEF7CAFA0020FEF7C7FA9320FEF7C9
:102C3000C4FA0020FEF7C1FAA220FEF7BEFA002077
:102C4000FEF7BBFAB320FEF7B8FA0020FEF7B5FA9C
:102C5000BE20FEF7B2FA0020FEF7AFFAC420FEF75E
:102C6000ACFA0020FEF7A9FACD20FEF7A6FA002064
:102C7000FEF7A3FAD320FEF7A0FA0020FEF79DFA94
:102C8000DC20FEF79AFA0020FEF797FAF320FEF711
:102C900094FA0020FEF791FAE620FEF78BFA112055
:102CA000FEF78BFA0020FEF788FA3420FEF785FA4B
:102CB0000020FEF782FA5620FEF77FFA0020FEF78A
:102CC0007CFA7620FEF779FA0020FEF776FA772074
:102CD000FEF773FA0020FEF770FA6620FEF76DFA31
:102CE0000020FEF76AFA8820FEF767FA0020FEF758
:102CF00064FA9920FEF761FA0020FEF75EFABB2025
:102D0000FEF75BFA0020FEF758FA9920FEF755FA15
:102D10000020FEF752FA6620FEF74FFA0020FEF779
:102D20004CFA5520FEF749FA0020FEF746FA5520E6
:102D3000FEF743FA0020FEF740FA4520FEF73DFA81
:102D40000020FEF73AFA4320FEF737FA0020FEF79C
:102D500034FA4420FEF731FA0020FEF72EFAE7207D
:102D6000FEF728FA3220FEF728FA0020FEF725FAAF
:102D70005520FEF722FA0020FEF71FFA7620FEF714
:102D80001CFA0020FEF719FA6620FEF716FA00205A
:102D9000FEF713FA6720FEF710FA0020FEF70DFA8F
:102DA0006720FEF70AFA0020FEF707FA8720FEF7F1
:102DB00004FA0020FEF701FA9920FEF7FEF9002040
:102DC000FEF7FBF9BB20FEF7F8F90020FEF7F5F956
:102DD0009920FEF7F2F90020FEF7EFF97720FEF7D1
:102DE000ECF90020FEF7E9F94420FEF7E6F90020AF
:102DF000FEF7E3F95620FEF7E0F90020FEF7DDF9D3
:102E00002320FEF7DAF90020FEF7D7F93320FEF78A
:102E1000D4F90020FEF7D1F94520FEF7CEF90020C5
:102E2000FEF7CBF9E820FEF7C5F90020FEF7C5F95B
:102E30000020FEF7C2F99920FEF7BFF90020FEF747
:102E4000BCF98720FEF7B9F90020FEF7B6F9882013
:102E5000FEF7B3F90020FEF7B0F97720FEF7ADF9E1
:102E60000020FEF7AAF96620FEF7A7F90020FEF77A
:102E7000A4F98820FEF7A1F90020FEF79EF9AA2008
:102E8000FEF79BF90020FEF798F9BB20FEF795F9B5
:102E90000020FEF792F99920FEF78FF90020FEF747
:102EA0008CF96620FEF789F90020FEF786F9552097
:102EB000FEF783F90020FEF780F95520FEF77DF933
:102EC0000020FEF77AF94420FEF777F90020FEF79C
:102ED00074F94420FEF771F90020FEF76EF95520D1
:102EE000FEF76BF90020FEF768F9E920FEF762F9BA
:102EF000AA20FEF762F90020FEF75FF90020FEF736
:102F00005CF90020FEF759F90020FEF753F9AA20DA
:102F1000FEF753F9CF20FEF74DF90020FEF74DF9EB
:102F20000020FEF74AF90020FEF747F90020FEF7DF
:102F300044F90020FEF741F90020FEF73EF9002099
:102F4000FEF73BF90020FEF738F90020FEF735F9CF
:102F50000020FEF732F90020FEF72FF90020FEF7DF
:102F60002CF90020FEF729F90020FEF726F90020B1
:102F7000FEF723F90020FEF720F90020FEF71DF9E7
:102F8000F020FEF717F90020FEF717F95020FEF7A2
:102F900014F90020FEF711F90020FEF70EF90020C9
:102FA000FEF70BF9F320FEF705F90020FEF705F90F
:102FB000F920FEF7FFF80620FEF7FFF81020FEF7D5
:102FC000FCF82920FEF7F9F80020FEF7F6F83A2081
:102FD000FEF7F0F85520FEF7F0F81120FEF7EAF8BA
:102FE000642002F042FD2920FEF7E4F83520FEF7C8
:102FF000E1F80020FEF7E1F85120FEF7DBF8FF20B2
:10300000FEF7DBF85320FEF7D5F82C20FEF7D5F8B5
:103010005520FEF7CFF88220FEF7CFF82C20FEF7E0
:10302000C9F801F048B8FE48808845F2105188423E
:103030007ED155214FF47040FEF7CBF8AA214FF214
:103040000100FEF7C6F852214FF20200FEF7C1F868
:1030500008214FF20300FEF7BCF801214FF20400F3
:10306000FEF7B7F80D214FF43040FEF7B2F80D210E
:103070004BF20100FEF7ADF80D214BF20200FEF716
:10308000A8F834214FF43640FEF7A3F834214BF270
:103090000160FEF79EF834214BF20260FEF799F8CA
:1030A0000D214FF43140FEF794F80D214BF2011041
:1030B000FEF78FF80D214BF20210FEF78AF834214B
:1030C0004FF43740FEF785F834214BF20170FEF7DC
:1030D00080F834214BF20270FEF77BF800214FF4A8
:1030E0003240FEF776F800214BF20120FEF771F82E
:1030F00000214BF20220FEF76CF824214FF43840F7
:10310000FEF767F824214BF60100FEF762F8242150
:103110004BF60200FEF75DF801214FF43F40FEF749
:1031200058F80F214FF43340FEF753F80F2100E019
:10313000FEE34BF20130FEF74CF80F214BF2023068
:10314000FEF747F834214FF43940FEF742F83421B6
:103150004BF60110FEF73DF834214BF60210FEF756
:1031600038F808214FF43540FEF733F808214BF2C8
:103170000150FEF72EF808214BF20250FEF729F815
:1031800003214FF44240FEF724F824214FF43A4043
:10319000FEF71FF824214BF60120FEF71AF8242130
:1031A0004BF60220FEF715F800214FF43C40FEF7E5
:1031B00010F878214BF60140FEF70BF800214BF692
:1031C0000240FEF706F800214FF43D40FEF701F8FB
:1031D00078214BF60150FDF7FCFF00214BF6025021
:1031E000FDF7F7FF00214FF43E40FDF7F2FF6421A9
:1031F0004BF60160FDF7EDFF00214FF45140FDF764
:10320000E8FF33214DF20110FDF7E3FF00214DF2FD
:103210000210FDF7DEFF34214DF20310FDF7D9FF58
:1032200000214DF20410FDF7D4FF3A214DF20510B4
:10323000FDF7CFFF00214DF20610FDF7CAFF4A212E
:103240004DF20710FDF7C5FF00214DF20810FDF704
:10325000C0FF5C214DF20910FDF7BBFF00214DF2CC
:103260000A10FDF7B6FF81214DF20B10FDF7B1FFFB
:1032700000214DF20C10FDF7ACFFA6214DF20D1010
:10328000FDF7A7FF00214DF20E10FDF7A2FFE5218B
:103290004DF20F10FDF79DFF01214DF21010FDF7CB
:1032A00098FF13214DF21110FDF793FF01214DF20C
:1032B0001210FDF78EFF54214DF21310FDF789FF18
:1032C00001214DF21410FDF784FF82214DF21510FB
:1032D000FDF77FFF01214DF21610FDF77AFFCA219D
:1032E0004DF21710FDF775FF02214DF21810FDF792
:1032F00070FF00214DF21910FDF76BFF02214DF216
:103300001A10FDF766FF01214DF21B10FDF761FF5A
:1033100002214DF21C10FDF75CFF34214DF21D100F
:10332000FDF757FF02214DF21E10FDF752FF6721F6
:103330004DF21F10FDF74DFF02214DF22010FDF759
:1033400048FF84214DF22110FDF743FF02214DF289
:103350002210FDF73EFFA4214DF22310FDF739FFA7
:1033600002214DF22410FDF734FFB7214DF2251054
:10337000FDF72FFF02214DF22610FDF72AFFCF2186
:103380004DF22710FDF725FF02214DF22810FDF721
:1033900020FFDE214DF22910FDF71BFF02214DF227
:1033A0002A10FDF716FFF2214DF22B10FDF711FF49
:1033B00002214DF22C10FDF70CFFFE214DF22D10D5
:1033C000FDF707FF03214DF22E10FDF702FF10213C
:1033D0004DF22F10FDF7FDFE03214DF23010FDF7E9
:1033E000F8FE33214DF23110FDF7F3FE03214DF2CB
:1033F0003210FDF7EEFE6D214DF23310FDF7E9FEC0
:1034000000214FF45240FDF7E4FE33214DF201203C
:10341000FDF7DFFE00214DF20220FDF7DAFE01E0AC
:103420008005002034214DF20320FDF7D2FE00215B
:103430004DF20420FDF7CDFE3A214DF20520FDF7B7
:10344000C8FE00214DF20620FDF7C3FE4A214DF2D1
:103450000720FDF7BEFE00214DF20820FDF7B9FE62
:103460005C214DF20920FDF7B4FE00214DF20A2047
:10347000FDF7AFFE81214DF20B20FDF7AAFE0021E2
:103480004DF20C20FDF7A5FEA6214DF20D20FDF713
:10349000A0FE00214DF20E20FDF79BFEE5214DF22E
:1034A0000F20FDF796FE01214DF21020FDF791FE51
:1034B00013214DF21120FDF78CFE01214DF2122057
:1034C000FDF787FE54214DF21320FDF782FE012106
:1034D0004DF21420FDF77DFE82214DF21520FDF7FF
:1034E00078FE01214DF21620FDF773FECA214DF240
:1034F0001720FDF76EFE02214DF21820FDF769FE40
:1035000000214DF21920FDF764FE02214DF21A2030
:10351000FDF75FFE01214DF21B20FDF75AFE02214F
:103520004DF21C20FDF755FE34214DF21D20FDF714
:1035300050FE02214DF21E20FDF74BFE67214DF299
:103540001F20FDF746FE02214DF22020FDF741FE2F
:1035500084214DF22120FDF73CFE02214DF2222074
:10356000FDF737FEA4214DF22320FDF732FE0221A4
:103570004DF22420FDF72DFEB7214DF22520FDF759
:1035800028FE02214DF22620FDF723FECF214DF229
:103590002720FDF71EFE02214DF22820FDF719FE1F
:1035A000DE214DF22920FDF714FE02214DF22A20E2
:1035B000FDF70FFEF2214DF22B20FDF70AFE02214E
:1035C0004DF22C20FDF705FEFE214DF22D20FDF7DA
:1035D00000FE03214DF22E20FDF7FBFD10214DF2E0
:1035E0002F20FDF7F6FD03214DF23020FDF7F1FD10
:1035F00033214DF23120FDF7ECFD03214DF2322055
:10360000FDF7E7FD6D214DF23320FDF7E2FD0021CE
:103610004FF45340FDF7DDFD33214DF20130FDF74E
:10362000D8FD00214DF20230FDF7D3FD34214DF2DB
:103630000330FDF7CEFD00214DF20430FDF7C9FD4A
:103640003A214DF20530FDF7C4FD00214DF2063060
:10365000FDF7BFFD4A214DF20730FDF7BAFD00210D
:103660004DF20830FDF7B5FD5C214DF20930FDF754
:10367000B0FD00214DF20A30FDF7ABFD81214DF286
:103680000B30FDF7A6FD00214DF20C30FDF7A1FD3A
:10369000A6214DF20D30FDF79CFD00214DF20E30BC
:1036A000FDF797FDE5214DF20F30FDF792FD012169
:1036B0004DF21030FDF78DFD13214DF21130FDF765
:1036C00088FD01214DF21230FDF783FD54214DF2AA
:1036D0001330FDF77EFD01214DF21430FDF779FD29
:1036E00082214DF21530FDF774FD01214DF21630A7
:1036F000FDF76FFDCA214DF21730FDF76AFD02217B
:103700004DF21830FDF765FD00214DF21930FDF73F
:1037100060FD02214DF21A30FDF75BFD01214DF2F3
:103720001B30FDF756FD02214DF21C30FDF751FD17
:1037300034214DF21D30FDF74CFD02214DF21E30BB
:10374000FDF747FD67214DF21F30FDF742FD0221D5
:103750004DF22030FDF73DFD84214DF22130FDF783
:1037600038FD02214DF22230FDF733FDA4214DF248
:103770002330FDF72EFD02214DF22430FDF729FD07
:10378000B7214DF22530FDF724FD02214DF2263000
:10379000FDF71FFDCF214DF22730FDF71AFD022165
:1037A0004DF22830FDF715FDDE214DF22930FDF7F1
:1037B00010FD02214DF22A30FDF70BFDF2214DF2F2
:1037C0002B30FDF706FD02214DF22C30FDF701FDF7
:1037D000FE214DF22D30FDF7FCFC03214DF22E3081
:1037E000FDF7F7FC10214DF22F30FDF7F2FC03211D
:1037F0004DF23030FDF7EDFC33214DF23130FDF765
:10380000E8FC03214DF23230FDF7E3FC6D214DF26F
:103810003330FDF7DEFC00214FF45440FDF7D9FCB6
:1038200033214DF20140FDF7D4FC00214DF202405E
:10383000FDF7CFFC34214DF20340FDF7CAFC002117
:103840004DF20440FDF7C5FC3A214DF20540FDF76D
:10385000C0FC00214DF20640FDF7BBFC4A214DF2B1
:103860000740FDF7B6FC00214DF20840FDF7B1FC22
:103870005C214DF20940FDF7ACFC00214DF20A40FD
:10388000FDF7A7FC81214DF20B40FDF7A2FC0021C2
:103890004DF20C40FDF79DFCA6214DF20D40FDF7C9
:1038A00098FC00214DF20E40FDF793FCE5214DF20E
:1038B0000F40FDF78EFC01214DF21040FDF789FC11
:1038C00013214DF21140FDF784FC01214DF212400D
:1038D000FDF77FFC54214DF21340FDF77AFC0121E6
:1038E0004DF21440FDF775FC82214DF21540FDF7B5
:1038F00070FC01214DF21640FDF76BFCCA214DF220
:103900001740FDF766FC02214DF21840FDF761FCFF
:1039100000214DF21940FDF75CFC02214DF21A40E6
:10392000FDF757FC01214DF21B40FDF752FC00E072
:1039300003E302214DF21C40FDF74BFC34214DF214
:103940001D40FDF746FC02214DF21E40FDF741FCF3
:1039500067214DF21F40FDF73CFC02214DF2204053
:10396000FDF737FC84214DF22140FDF732FC0221A6
:103970004DF22240FDF72DFCA4214DF22340FDF72E
:1039800028FC02214DF22440FDF723FCB7214DF223
:103990002540FDF71EFC02214DF22640FDF719FCE3
:1039A000CF214DF22740FDF714FC02214DF22840B3
:1039B000FDF70FFCDE214DF22940FDF70AFC022144
:1039C0004DF22A40FDF705FCF2214DF22B40FDF7A8
:1039D00000FC02214DF22C40FDF7FBFBFE214DF2D5
:1039E0002D40FDF7F6FB03214DF22E40FDF7F1FBD4
:1039F00010214DF22F40FDF7ECFB03214DF230403A
:103A0000FDF7E7FB33214DF23140FDF7E2FB0321E7
:103A10004DF23240FDF7DDFB6D214DF23340FDF7F5
:103A2000D8FB00214FF45540FDF7D3FB33214DF275
:103A30000150FDF7CEFB00214DF20250FDF7C9FB0E
:103A400034214DF20350FDF7C4FB00214DF2045028
:103A5000FDF7BFFB3A214DF20550FDF7BAFB0021FF
:103A60004DF20650FDF7B5FB4A214DF20750FDF728
:103A7000B0FB00214DF20850FDF7ABFB5C214DF28D
:103A80000950FDF7A6FB00214DF20A50FDF7A1FBFE
:103A900081214DF20B50FDF79CFB00214DF20C50A3
:103AA000FDF797FBA6214DF20D50FDF792FB00218B
:103AB0004DF20E50FDF78DFBE5214DF20F50FDF755
:103AC00088FB01214DF21050FDF783FB13214DF2CD
:103AD0001150FDF77EFB01214DF21250FDF779FBED
:103AE00054214DF21350FDF774FB01214DF2145097
:103AF000FDF76FFB82214DF21550FDF76AFB0121A6
:103B00004DF21650FDF765FBCA214DF21750FDF737
:103B100060FB02214DF21850FDF75BFB00214DF2D6
:103B20001950FDF756FB02214DF21A50FDF751FBDB
:103B300001214DF21B50FDF74CFB02214DF21C50B0
:103B4000FDF747FB34214DF21D50FDF742FB0221EA
:103B50004DF21E50FDF73DFB67214DF21F50FDF762
:103B600038FB02214DF22050FDF733FB84214DF24A
:103B70002150FDF72EFB02214DF22250FDF729FBCB
:103B8000A4214DF22350FDF724FB02214DF22450D5
:103B9000FDF71FFBB7214DF22550FDF71AFB02215F
:103BA0004DF22650FDF715FBCF214DF22750FDF7C2
:103BB00010FB02214DF22850FDF70BFBDE214DF2E8
:103BC0002950FDF706FB02214DF22A50FDF701FBBB
:103BD000F2214DF22B50FDF7FCFA02214DF22C5050
:103BE000FDF7F7FAFE214DF22D50FDF7F2FA032111
:103BF0004DF22E50FDF7EDFA10214DF22F50FDF74A
:103C0000E8FA03214DF23050FDF7E3FA33214DF28B
:103C10003150FDF7DEFA03214DF23250FDF7D9FAAB
:103C20006D214DF23350FDF7D4FA00214FF4564088
:103C3000FDF7CFFA33214DF20160FDF7CAFA0021FA
:103C40004DF20260FDF7C5FA34214DF20360FDF735
:103C5000C0FA00214DF20460FDF7BBFA3A214DF2A3
:103C60000560FDF7B6FA00214DF20660FDF7B1FAE6
:103C70004A214DF20760FDF7ACFA00214DF20860D1
:103C8000FDF7A7FA5C214DF20960FDF7A2FA0021C9
:103C90004DF20A60FDF79DFA81214DF20B60FDF7B0
:103CA00098FA00214DF20C60FDF793FAA6214DF22F
:103CB0000D60FDF78EFA00214DF20E60FDF789FAD6
:103CC000E5214DF20F60FDF784FA01214DF21060FD
:103CD000FDF77FFA13214DF21160FDF77AFA012109
:103CE0004DF21260FDF775FA54214DF21360FDF7A5
:103CF00070FA01214DF21460FDF76BFA82214DF24A
:103D00001560FDF766FA01214DF21660FDF761FAC4
:103D1000CA214DF21760FDF75CFA02214DF21860DE
:103D2000FDF757FA00214DF21960FDF752FA022112
:103D30004DF21A60FDF74DFA01214DF21B60FDF7BF
:103D400048FA02214DF21C60FDF743FA34214DF28E
:103D50001D60FDF73EFA02214DF21E60FDF739FAB3
:103D600067214DF21F60FDF734FA02214DF2206009
:103D7000FDF72FFA84214DF22160FDF72AFA022186
:103D80004DF22260FDF725FAA4214DF22360FDF7E4
:103D900020FA02214DF22460FDF71BFAB7214DF203
:103DA0002560FDF716FA02214DF22660FDF711FAA3
:103DB000CF214DF22760FDF70CFA02214DF2286069
:103DC000FDF707FADE214DF22960FDF702FA022124
:103DD0004DF22A60FDF7FDF9F2214DF22B60FDF75F
:103DE000F8F902214DF22C60FDF7F3F9FE214DF2B6
:103DF0002D60FDF7EEF903214DF22E60FDF7E9F994
:103E000010214DF22F60FDF7E4F903214DF23060EF
:103E1000FDF7DFF933214DF23160FDF7DAF90321C7
:103E20004DF23260FDF7D5F96D214DF23360FDF7AB
:103E3000D0F955214FF47040FDF7CBF9AA214FF28C
:103E40000100FDF7C6F952214FF20200FDF7C1F95A
:103E500008214FF20300FDF7BCF900214FF20400E6
:103E6000FDF7B7F9CC214FF43140FDF7B2F900214D
:103E70004BF20110FDF7ADF905214FF43640FDF787
:103E8000A8F970214FF43740FDF7A3F970214BF2E8
:103E90000170FDF79EF901214FF43840FDF799F9C3
:103EA00003214BF60100FDF794F903214BF60200C4
:103EB000FDF78FF903214BF60300FDF78AF9022184
:103EC0004FF43C40FDF785F900214BF60140FDF72A
:103ED00080F900214BF60240FDF77BF9D0214FF429
:103EE0004940FDF776F902214CF60110FDF771F912
:103EF00050214CF60210FDF76CF950214CF60310DE
:103F0000FDF767F950214CF60410FDF762F9002126
:103F10004FF45450FDF75DF955214FF46850FDF70B
:103F200058F94FF48850FDF745F9782001F079FDF4
:103F30004FF42450FDF73EF9BDE0FE48808841F67D
:103F400063118842F8D1E220FDF734F91D20FDF716
:103F500034F90220FDF731F90420FDF72EF9642031
:103F600001F05FFDE020FDF725F90120FDF725F9BF
:103F70000A2001F07AFDE020FDF71CF90320FDF78F
:103F80001CF90C2001F071FD0120FDF713F90A2046
:103F900001F06BFDE620FDF70DF92F20FDF70DF97F
:103FA000FF20FDF70AF9FF20FDF707F9B020FDF724
:103FB00001F92020FDF701F90020FDF7FEF80320AC
:103FC000FDF7FBF840F21F30FDF7F7F80120FDF791
:103FD000F4F840F2DF10FDF7F0F80020FDF7EDF8FF
:103FE000B420FDF7E7F80420FDF7E7F840F21F40A2
:103FF000FDF7E3F80020FDF7E0F82E20FDF7DDF8EF
:104000000020FDF7DAF80020FDF7D7F80020FDF7D3
:10401000D4F80020FDF7D1F8B620FDF7CBF8022048
:10402000FDF7CBF84FF40370FDF7C7F80020FDF75C
:10403000C4F81720FDF7C1F81520FDF7BEF80020E1
:10404000FDF7BBF80020FDF7B8F8F020FDF7B2F857
:104050000320FDF7B2F82920FDF7ACF8D020FDF7DA
:10406000A9F80020FDF7A9F8BE20FDF7A3F8052068
:10407000FDF7A3F8FE20FDF7A0F80120FDF79DF85D
:104080000020FDF79AF80020FDF797F80020FDF7D3
:1040900094F8B820FDF78EF80320FDF78EF8012084
:1040A000FDF78BF8BA20FDF785F80120FDF785F8BC
:1040B0006420FDF747FB0120FDF76CFB01209E49C2
:1040C00008604FF6FF70FDF7B0FC1FB000BD2DE992
:1040D000F04F05460E4617469846DDF824A04FF0EF
:1040E000000B781B401C1FFA80FB344613E021466E
:1040F0002846FDF79BF8FDF77CF84FF0000906E035
:104100008E48A0F800A009F101001FFA80F9D945F6
:10411000F6DB601C84B24445E9DDBDE8F08F2DE993
:10412000F84F07460D4690469946DDF828B0A8EBB3
:104130000700401C1FFA80FAA9EB0500401C80B262
:104140000090002414E0281981B23846FDF76EF87B
:10415000FDF74FF8002607E004FB0A603BF810006B
:1041600076490880701C86B25645F5DB601C84B227
:1041700000988442E7DBBDE8F88F2DE9FF4F84B05B
:1041800081468A460020039002900698A0EB09051C
:104190000798A0EB0A06CDF80490CDF800A0002DFA
:1041A00001DD012705E00DB9002702E04FF0FF37E0
:1041B0006D42002E02DD4FF0010806E016B94FF007
:1041C000000802E04FF0FF387642B54201DD2C4690
:1041D00000E034464FF0000B21E0009A91B2019AC2
:1041E00090B2FDF72CFA03982844039002983044CB
:1041F00002900398A04205DD0398001B03900198EC
:10420000384401900298A04205DD0298001B0290FC
:104210000098404400900BF101001FFA80FB601CE5
:104220008345DADD08B0BDE8F08FF0B504460D46F1
:1042300016461F462B46324629462046FFF79DFF6D
:104240003B46224629462046FFF797FF3B4632462B
:1042500039462046FFF791FF3B4632462946304615
:10426000FFF78BFFF0BD2DE9F04306460F46904661
:10427000002445460320A0EB48093CE07A1B91B29C
:10428000321990B2FDF7DBF93A1B91B2721990B274
:10429000FDF7D5F93A1991B2721990B2FDF7CFF93D
:1042A0007A1991B2321990B2FDF7C9F97A1991B21F
:1042B000321B90B2FDF7C3F93A1991B2721B90B25A
:1042C000FDF7BDF97A1B91B2321B90B2FDF7B7F939
:1042D0003A1B91B2721B90B2FDF7B1F9641CB9F1AF
:1042E000000F03DAA000801D814404E0601B800001
:1042F0000A3081446D1EAC42C0DDBDE8F0832DE97B
:10430000F84F80460E4617461C46B3462046E31734
:1043100004EB5373DB1021464FEAE47C04EB5C7C36
:104320004FEAEC0CA4EBCC0CBCF1000F08D04FF022
:10433000010C07E080050020808121420008006C0C
:104340004FF0000C6344224604EBD27C4FEA6C0C25
:1043500003FB0CF3DBB20093A7F12000C7B20025EA
:1043600056E00C2C07D107EB47009F4901EB80007A
:1043700010F8059013E0102C05D19C4800EB0710B5
:1043800010F805900BE0182C07D107EBC7009849EF
:1043900001EB800010F8059001E0BDE8F88F4FF0C8
:1043A000000A2FE009F0800030B1924802883146BF
:1043B0004046FDF752F907E00A9828B98E4802886E
:1043C00031464046FDF749F94FEA49604FEA106926
:1043D000701C86B289484088B04200DCDDE7A6EB5D
:1043E0000B00A0420AD15E4608F101001FFA80F8D6
:1043F00082480088404500DCCFE706E00AF1010072
:1044000000F0FF0ABAF1080FCCDB00BF681CC5B290
:1044100000988542A5DB00BFBFE710B5024601202A
:1044200000E050430B1EA1F10104E1B2F9D110BD2F
:104430002DE9FF4F81B0074691461E460E9D4FF075
:10444000000A002439E0301B401EC1B20A20FFF7E9
:10445000E4FFB9FBF0F00A21B0FBF1F201FB120816
:10446000BAF1000F16D1701EA04213DDB8F1000F93
:104470000ED10020AB4605EBDB71491001FB047146
:10448000009088B22B4620220299FFF738FF12E0F5
:104490004FF0010A0020AB4605EBDB71491001FB30
:1044A0000471009088B208F13001CAB22B4602991B
:1044B000FFF725FF00BF601CC4B2B442C3DB05B0E8
:1044C000BDE8F08F2DE9FF4F82B0064692461F46A9
:1044D000DDE90F480020019000254DE0781B401ECB
:1044E000C1B20A20FFF799FFBAFBF0F00A21B0FB36
:1044F000F1F201FB1209019850BB781EA84227DD9A
:10450000B9F1000F22D108F0800078B108F0010065
:10451000A34604EBDB71491001FB0561009088B2F2
:10452000234630220399FFF7EAFE0EE008F001006F
:10453000A34604EBDB71491001FB0561009088B2D2
:10454000234620220399FFF7DAFE13E001200190B1
:1045500008F00100A34604EBDB71491001FB056183
:10456000009088B209F13001CAB223460399FFF7DF
:10457000C6FE00BF681CC5B2BD42AFDB06B0BDE8D9
:10458000F08F2DE9F84704460D4690469946DDE93F
:10459000096704F0FF0A08EB04001FFA80F809EB32
:1045A00005001FFA80F916E0444502DB5446A819BD
:1045B00085B24D4500DB14E0002000903A78334688
:1045C00029462046FFF79BFE304606EBD07104EBF0
:1045D00061018CB27F1C38787E2802DC3878202874
:1045E000E2DA00BFBDE8F88748960008BC9A0008E8
:1045F000ACA00008540000205600002080050020D8
:1046000070B50446002520E004F0800020B1202190
:10461000F94801F044FD03E02021F74801F041FD95
:10462000142001F0FEF90821F34801F03AFD1420AE
:1046300001F0F7F90821F04801F031FD142001F0F4
:10464000F0F96006040E681CC5B2082DDCDB70BDF5
:1046500070B504460D467E2000EA44064FF4004142
:10466000E64801F01EFD3046FFF7CAFF2846FFF777
:10467000C7FF4FF40041E14801F011FD70BD70B576
:1046800000251CE06006040E0821DB4801F009FD4E
:10469000142001F0C6F91021D74801F0E6FC0128EA
:1046A00001D144F00104142001F0BBF90821D248E3
:1046B00001F0F5FC142001F0B4F9681CC5B2082D16
:1046C000E0DB204670BD70B504467E2000EA440061
:1046D00040F080054FF40041C84801F0E2FC284654
:1046E000FFF78EFFFFF7CBFF06464FF40041C348AC
:1046F00001F0D5FC304670BD70B505460C46284625
:10470000FFF7E1FF064646EA04012846FFF7A0FF4F
:1047100070BD70B505460C462846FFF7D4FF064627
:1047200026EA04012846FFF793FF70BD2DE9FE4FEE
:104730000646884691469A46DDF830B0022002903F
:104740000020019000900C2E06D00E2E09D11220D0
:1047500001901020009005E077200190302000901B
:1047600000E000BF00BF019840F080010220FFF789
:104770006FFF80210420FFF7CCFF00210120FFF70D
:1047800067FF80210A20FFF7B7FF002505E018F832
:1047900005100920FFF75CFF6D1C4D45F7D331462E
:1047A0000120FFF755FF0C2E03D180210D20FFF7CC
:1047B000A3FF4FF47A7500BF0420FFF784FF04467F
:1047C0006D1E35B104F0010018B900982040002892
:1047D000F2D080210D20FFF79CFF95B30620FFF754
:1047E00072FF00F01B0068BB00200290019820407F
:1047F00000F0010008B1012002900C2E24D10A2003
:10480000FFF761FF04460C20FFF75DFF00F007078C
:104810002FB1601E07EBC000CBF8000002E0E00003
:10482000CBF8000004B90124122C00DD122400256D
:1048300005E00920FFF747FF0AF805006D1CA542B7
:10484000F7D301E00220029080210C20FFF754FFF3
:1048500000210120FFF7FCFE0298BDE8FE8F2DE944
:10486000F04107468846154604210520FFF751FF11
:1048700000210120FFF7ECFE80210A20FFF73CFF1A
:10488000002405E0395D0920FFF7E2FE601CC4B298
:104890004445F7DB03210120FFF7DAFEFF2400BFC8
:1048A0000520FFF710FF0646601EC4B21CB106F0DB
:1048B00004000028F4D02220FFF705FF28702120F3
:1048C000FFF701FF6870BDE8F081F0B587B00546DD
:1048D0000E4630208DF808008DF809500DF10A02BF
:1048E000022102A8FFF7BBFF01A802AB042202A924
:1048F00000900C20FFF71AFF074667B9019890282F
:1049000009D1002404E002A8005D3055601CC4B247
:10491000102CF8DB00E00227384607B0F0BD2DE987
:10492000F04387B006460F46904699468DF80860DA
:104930008DF80970002406E018F8041002AAA01CE3
:104940001154601CC4B2062CF6DB002407E019F8F1
:10495000041002AA04F108001154601CC4B2062C11
:10496000F5DB01A802AB0C2202A900900E20FFF794
:10497000DDFE05462DB90820FFF7A5FE00F0080072
:1049800000B90225284607B0BDE8F08370B588B0AD
:10499000054693208DF80C0070208DF80D00002046
:1049A0008DF8120000240BE0295D03AAA01C11540D
:1049B0009DF81200295D48408DF81200601CC4B2B9
:1049C000042CF1DB0DF11302072103A8FFF747FFC9
:1049D00008210846FFF79DFE02A803AB092203A9A0
:1049E00000900C20FFF7A2FE06464EB90298182848
:1049F00006D1002605E00000000C0140000801403F
:104A00000226304608B070BD30B585B0054600249A
:104A100046E0285DC11700EB1171091102AA02F8E6
:104A2000141002A810F81400092807DD02A810F8D5
:104A30001400373002A901F8140006E002A810F8AB
:104A40001400303002A901F81400285DC11700EBF2
:104A500011710911A0EB0111012202EB440202AB1A
:104A60009954012000EB440002A9085C09280ADDE2
:104A7000012000EB4400085C3730012101EB4401C8
:104A800002AA50540AE0012000EB440002A9085C8D
:104A90003030012101EB440102AA5054601CC4B221
:104AA000042CB6DB00208DF81000002405E002A8DD
:104AB000005DF9490855601CC4B20A2CF7DBF7A168
:104AC000F54803F0FCFCB0B9F7A003F0CDFFF8A067
:104AD00003F0CAFFF9A018210B46D222CDE900103D
:104AE00028210A20FFF74DFD00F0B0FB4FF47A704B
:104AF00000F0BBFF09E0F5A018210B46D222CDE95A
:104B0000001028210A20FFF73CFD02A9F2A003F0C3
:104B1000ABFF05B030BDF0B587B0054600270821D2
:104B20000846FFF7F6FD00210D20FFF791FD8021DB
:104B30000E20FFF7EEFD93208DF8080020208DF861
:104B4000090001A802AB022202A900900C20FFF785
:104B5000EDFD064686B9002407E002A8005D285551
:104B600002A8005D4740601CC4B2042CF5DB02A81B
:104B7000005DB84200D0022680210E20FFF7BCFD68
:104B8000304607B0F0BD70B588B005460C46082128
:104B90000846FFF7BEFD07210D20FFF759FD032151
:104BA0001420FFF7A9FD8DF80C5002A803AB0122D9
:104BB00003A900900C20FFF7B9FD06464EB90298F4
:104BC000102806D19DF80C0020709DF80D00607033
:104BD00000E00226304608B070BD10B5C149522031
:104BE000FFF7D1FFC04908700846007850B9BFA050
:104BF00003F03AFF0220BC490870A748FFF78BFF7B
:104C0000B9490870B848007850B90220B649087010
:104C1000A148FFF7F9FEA048FFF7B8FEB2490870B7
:104C2000B148007850B90220AF4908709A4BB34A96
:104C300009216020FFF773FEAB490870AA4800788D
:104C400048B90220A8490870AD49AE480078FFF77E
:104C50003CFEA5490870A448007828B90220A24962
:104C60000870642000F001FF10BD1CB59D49522062
:104C7000FFF789FF9C4908700846007800283ED15C
:104C80004FF6FF70FCF7D1FE9FA003F0EDFEA1A050
:104C900018210B46D222CDE900100A210846FFF761
:104CA00070FC4FF47A7000F0E0FE02208E4908702C
:104CB0007948FFF730FF8C4908707748FFF7A4FE6A
:104CC00098A018210B46D222CDE9001050210A20CD
:104CD000FFF757FC4FF47A7000F0C7FE6E481821BA
:104CE0000B46D222CDE9001078210A20FFF749FCBB
:104CF0004FF47A7000F0B9FE01208D490870002051
:104D00006549087048708870C8701CBD10B51420C3
:104D1000FFF7D9FC044604F0030018B9032114205E
:104D2000FFF7EAFC10BD10B50446412C24D1082140
:104D30000846FFF7EEFC3D211120FFF789FC862194
:104D40001720FFF785FC7F212620FFF781FC1E211D
:104D50002D20FFF77DFC00212C20FFF779FC8D2111
:104D60002A20FFF775FC3E212B20FFF771FC022063
:104D700000F057FEFFF7CAFF10BD10B502216D48C5
:104D800001F08DF9012000F04CFE0221694801F08C
:104D900088F9012000F045FE0221664801F07FF904
:104DA000012000F03EFE0F210120FFF751FC00BF63
:104DB0000120FFF788FC00F010000028F8D1012046
:104DC00000F02FFE3D211120FFF742FC1E212D2077
:104DD000FFF73EFC00212C20FFF73AFC8D212A2012
:104DE000FFF736FC3E212B20FFF732FC4021152037
:104DF000FFF72EFC10BD08B501210C2001F05EFB71
:104E00000121084601F05AFB01214B4801F06BF9E2
:104E10004FF40040ADF8000010208DF8030003208F
:104E20008DF802006946454801F08CF80820ADF87D
:104E3000000010208DF8030003208DF80200694661
:104E40003C4801F07FF81020ADF8000004208DF8F8
:104E5000030003208DF802006946364801F072F81D
:104E60002020ADF8000010208DF8030003208DF8FD
:104E7000020069462F4801F065F80220ADF80000F5
:104E800010208DF8030003208DF8020069462948A0
:104E900001F058F808BD00005A00002038373930BA
:104EA00042454234000000006964D5FDC8B70000E7
:104EB000BFA8BAC5D5FDC8B700000000444F4F5287
:104EC000204F50454E494E473A0000004944204586
:104ED00052524F520000000049443E3E3E25730DA1
:104EE0000A00000058000020940000200D0AD1B0F4
:104EF000BFA8B3C9B9A60D0A0000000078000020C1
:104F00008E05002095000020D1B0BFA8B3C9B9A676
:104F10000A000000636172642073656172636865F2
:104F200064000000636172644944A3BA0000000099
:104F300002000020000C0140000230000008014087
:104F400010B5FFF758FF02218B4801F0A8F84FF485
:104F500000418A4801F0A3F8FFF70FFF4120FFF757
:104F6000E2FE10BD10B503211420FFF7D2FB10BDE7
:104F7000F0B587B006460F46A0208DF808008DF8E2
:104F800009600DF10A02022102A8FFF768FC01A8DE
:104F900002AB042202A900900C20FFF7C7FB0546D4
:104FA00045B90198042805D19DF8080000F00F00CC
:104FB0000A2800D0022535BB1022394602A803F08A
:104FC00065FA002404E0385D02A90855601CC4B2EB
:104FD000102CF8DB06AA102102A8FFF740FC01A85C
:104FE00002AB122202A900900C20FFF79FFB05469E
:104FF00045B90198042805D19DF8080000F00F007C
:105000000A2800D00225284607B0F0BD00B587B0B9
:1050100050208DF8080000208DF809000DF10A02DB
:10502000022102A8FFF71BFC01A802AB042202A97F
:1050300000900C20FFF77AFB002007B000BDF8B508
:1050400004460D4617461E46002000906946522031
:10505000FFF799FD6846FFF75EFD2046FFF796FCD7
:1050600023462A4610216020FFF759FC27B131461C
:105070001020FFF72AFC03E031461020FFF778FFED
:10508000FFF7C4FFF8BD30B585B00546002446E003
:10509000285DC11700EB1171091102AA02F8141062
:1050A00002A810F81400092807DD02A810F814005F
:1050B000373002A901F8140006E002A810F8140025
:1050C000303002A901F81400285DC11700EB1171FE
:1050D0000911A0EB0111012202EB440202AB995429
:1050E000012000EB440002A9085C09280ADD012028
:1050F00000EB4400085C3730012101EB440102AAB7
:1051000050540AE0012000EB440002A9085C303052
:10511000012101EB440102AA5054601CC4B2042CCA
:10512000B6DB00208DF81000002405E002A8005D29
:1051300013490855601CC4B20A2CF7DBAFF2A42156
:105140000F4803F0BCF9A0B9AFF29C2003F08CFC2F
:10515000AFF2982018210B46D222CDE90010782119
:105160000A20FFF70EFA00F071F84FF47A7000F0A1
:105170007CFC05B030BD0000000C0140000801407F
:105180005A00002000B589B00121480301F096F9CA
:105190000121102001F092F94020ADF820001820E4
:1051A0008DF8230003208DF8220008A9324800F072
:1051B000C9FEC720ADF8180041F61F40ADF8140035
:1051C0000020ADF81A00ADF816008DF81C0005A9F6
:1051D0002A4801F0AFFC6020ADF804000120ADF8D2
:1051E00006000020ADF80A00ADF80C004FF4807006
:1051F000ADF8100001A9214801F0D9FC08211F4891
:1052000002F024F901211D4801F0F0FF01211B48A3
:1052100001F0F8FF09B000BD10B50521174802F0F4
:105220007DFA4CF2503000F020FC0F21134802F0C0
:1052300075FA4CF2503000F018FC19210F4802F0BA
:105240006DFA4CF2503000F010FC10BD10B5052185
:105250000A4802F063FA4FF47A7000F006FC192154
:10526000064802F05BFA4FF47A7000F0FEFB05216D
:10527000024802F053FA10BD001001400034014012
:105280000EB5FBF705FF0121084601F017F90321D0
:10529000042000F06DFF0820019000208DF8080028
:1052A0000C208DF8090001A802F092FD04210846A7
:1052B00000F05EFF1020019001A802F089FD00219E
:1052C000084600F055FF0120019008208DF80900E4
:1052D00001A802F07DFD06208DF8000002208DF867
:1052E000010003208DF8020001208DF803006846BC
:1052F00000F05FFD09208DF8000002208DF801000C
:1053000001208DF802008DF80300684600F051FD81
:105310000A208DF8000002208DF8010000208DF891
:10532000020001208DF80300684600F042FD0EBD2A
:1053300010B50A2000F099FB01211C4800F095FEF1
:10534000012807D11A48006808B9012000E00020B0
:1053500017490860012002F0B2FD10BD10B50A2007
:1053600000F083FB0821134800F07FFE20B90120E4
:105370001149087011490870082002F0A0FD10BD05
:1053800010B50A2000F071FB10210A4800F06DFEF4
:1053900038B90020084908700849087001200849F8
:1053A0000870102002F08BFD10BD000000080140C5
:1053B0009401234200180140000000200100002059
:1053C000020000200146088870472DE9F04105469B
:1053D0000E461746002407E036F81410284602F05F
:1053E000DEFEAD1C601C84B2BC42F5DBBDE8F08182
:1053F00030B503460C461546002207E01846FFF775
:10540000E1FF24F812009B1C501C82B2AA42F5DB7B
:1054100030BD2DE9F05F80468A461746B8F1006F2F
:1054200002D33748804501D3BDE8F09F02F06FFDFD
:10543000A8F1006B4FEADB25CBF34909C9F580647D
:10544000A74200DC3C464DE04FF0006101EBC52077
:105450004A142C49FFF7CCFF00260BE009EB0600AD
:10546000284931F810004FF6FF71884200D003E060
:10547000701C86B2A642F1DB00BFA6421BDA4FF0D9
:10548000006101EBC52002F087FD002608E03AF834
:10549000160006EB09011B4A22F81100701C86B2A7
:1054A000A642F4DB4FF0006101EBC5204A14154918
:1054B000FFF78BFF04E0224651464046FFF785FF89
:1054C000A74200D10FE06D1C4FF000090AEB440A1F
:1054D000A044381B87B2B7F5806F02DD4FF48064BB
:1054E00000E03C46B0E700BF02F01DFD00BF9BE7B7
:1054F00013B50446012201A92046FFF78AFF1CBD0F
:1055000000000808CE06002008B50121812000F027
:10551000D5FF0121FE4800F0E6FD8020ADF8000037
:1055200010208DF8030003208DF802006946F94829
:1055300000F008FD4020ADF8000010208DF80300B9
:1055400003208DF802006946F24800F0FBFC2020A1
:10555000ADF8000010208DF8030003208DF8020044
:105560006946EC4800F0EEFC10208DF803000320A3
:105570008DF802001020ADF800006946E54800F003
:10558000E1FC0120ADF8000028208DF80300032085
:105590008DF802006946DF4800F0D4FC0220ADF827
:1055A000000028208DF8030003208DF802006946D2
:1055B000D84800F0C7FC0420ADF8000028208DF882
:1055C000030003208DF802006946D24800F0BAFCBF
:1055D00028208DF8030003208DF802000820ADF884
:1055E00000006946CB4800F0ADFC4FF40050ADF828
:1055F000000010208DF8030003208DF8020069469A
:10560000C44800F09FFC08BD10B5FF248021C148AC
:1056100000F045FD4021BF4800F041FD2021BD487C
:1056200000F03DFD1021BB4800F039FD0121B948D3
:1056300000F01BFD012811D00221B64800F015FD35
:1056400001280BD00421B34800F00FFD012805D03C
:105650000821B04800F009FD01287DD10A2000F0A2
:1056600004FA0121AB4800F000FD012811D002210D
:10567000A84800F0FAFC01280BD00421A54800F04E
:10568000F4FC012805D00821A24800F0EEFC012816
:105690007ED1A14800780028FAD101209E490870E7
:1056A00080219C4800F0FBFC40219A4800F0F9FC66
:1056B0002021984800F0F5FC1021964800F0F1FCFC
:1056C0000121944800F0D1FC9449087002219148CE
:1056D00000F0CBFC9249087004218E4800F0C5FC14
:1056E0009049087008218B4800F0BFFC8E49087073
:1056F0008A480078012809D18948007830B989485A
:10570000007818B90846007800B941248348007829
:1057100050B983480078012806D18248007818B92A
:105720008148007800B942247C48007850B97C4810
:10573000007838B97B480078012803D17A4800788E
:1057400000B943247548007860B97548007848B9B5
:105750007448007830B900E037E1734800780128D8
:1057600000D1442480216B4800F09BFC4021694813
:1057700000F095FC2021674800F093FC102165485B
:1057800000F08FFC0121634800F06FFC634900E0EA
:105790001FE1087002215F4800F067FC6049087053
:1057A00004215C4800F061FC5E49087008215948FA
:1057B00000F05BFC5C49087058480078012809D16A
:1057C0005748007830B95748007818B9084600782B
:1057D00000B903245148007850B951480078012895
:1057E00006D15048007818B94F48007800B906240F
:1057F0004A48007850B94A48007838B94948007892
:10580000012803D14848007800B9092443480078AA
:1058100050B94348007838B94248007820B9424826
:105820000078012800D1232480213A4800F039FC77
:105830004021384800F035FC2021364800F02FFC8C
:105840001021344800F02DFC0121324800F00DFCFD
:105850003249087002212F4800F007FC30490870D7
:1058600004212C4800F001FC2E4908700821294829
:1058700000F0FBFB2C49087028480078012809D16A
:105880002748007830B92748007818B908460078CA
:1058900000B902242148007850B921480078012835
:1058A00006D12048007818B91F48007800B90524AF
:1058B0001A48007850B91A48007838B91948007861
:1058C000012803D11848007800B90824134800784B
:1058D00050B91348007838B91248007820B91248F6
:1058E0000078012800D1002480210A4800F0D9FB6B
:1058F0004021084800F0D5FB2021064800F0D1FBEC
:105900001021044800F0CBFB012102480EE000000A
:1059100000023000001C0140AD000020A900002062
:10592000AA000020AB000020AC00002000F09DFB8E
:10593000294908700221294800F097FB284908707E
:105940000421264800F091FB2649087008212348CD
:1059500000F08BFB244908701F480078012809D10A
:105960001F48007830B91F48007818B908460078F9
:1059700000B901241848007850B919480078012866
:1059800006D11848007818B91748007800B90424DF
:105990001148007850B91248007838B91148007899
:1059A000012803D11048007800B907240A4800787C
:1059B00078B90B48007860B90A48007848B90A48B5
:1059C0000078012805D12A2403E000200749087047
:1059D000FF24204610BD0000A9000020001C01404B
:1059E000AA000020AB000020AC000020AD00002089
:1059F00010B56FF0040000F026FA2E4800682E491A
:105A0000B0FBF1F02D4908700846007800EB40012A
:105A1000C1EBC0104FF6FF7101EAC00028490880B1
:105A200010BD0146254A12784A434FF0E0235A61DF
:105A300000229A611A46126942F001021A6100BFFF
:105A40004FF0E022106900F001021AB100F4803238
:105A5000002AF5D04FF0E022126922F001024FF047
:105A6000E0231A6100229A6170470146144A1288A5
:105A70004A434FF0E0235A6100229A611A461269A4
:105A800042F001021A6100BF4FF0E022106900F0FD
:105A900001021AB100F48032002AF5D04FF0E02262
:105AA000126922F001024FF0E0231A6100229A618C
:105AB000704700003C00002000127A00AE00002079
:105AC000B0000020014600BF704700BF4A4A12885C
:105AD00002F04002002AF9D0C2B2474B1B1D1A80C7
